:020000040800F2
:10000000B1AA010000000000000000000000000094
:1000100000000000000000000000000000000000E0
:1000200000000000000000000000000000000000D0
:1000300000000000000000000000000000000000C0
:1000400000000000000000000000000000000000B0
:1000500000000000000000000000000000000000A0
:100060000000000000000000000000000000000090
:100070000000000000000000000000000000000080
:100080000000000000000000000000000000000070
:100090000000000000000000000000000000000060
:1000A0000000000000000000000000000000000050
:1000B0000000000000000000000000000000000040
:1000C0000000000000000000000000000000000030
:1000D0000000000000000000000000000000000020
:1000E0000000000000000000000000000000000010
:1000F00000000000142600080000000000000000BE
:1001000000000000000000000000000000000000EF
:1001100000000000000000000000000000000000DF
:1001200000000000000000000000000000000000CF
:1001300000000000000000000000000000000000BF
:1001400000000000000000000000000000000000AF
:100150000000000000000000042600087370043056
:10016000170500001305C5FF8545F605637BB5003F
:1001700089816378B500170500001305C5002E9529
:1001800002859302002073A0027D970200009382F3
:1001900062E773907230973200009382E25A739054
:1001A000C27E73E0C07E973200009382A2517390AA
:1001B0005230971100189381E1B417810018130190
:1001C00061E417550000130525669705001893850F
:1001D00065E3170600181306E63463FAC5008322A8
:1001E000050023A0550011059105E3EAC5FE17059A
:1001F0000018130525339705001893852563637749
:10020000B500232005001105E36DB5FE73F0023241
:10021000174500001305453D97400000E780A0F812
:1002200097400000E780804697100000E780E038A4
:100230000145814597000000E780403E17430000DC
:10024000670063F701A073E00232828073F002322C
:0402500082800000A8
:100280000000000000000000010203040607080946
:100290000A50726F6772616D2068617320657869BA
:1002A000746564207769746820636F64653A000040
:1002B000307800006E6D690A000000007472617091
:1002C0000A0000001603470069006700610044004F
:1002D0006500760069006300650000003803470090
:1002E000440033003200200055005300420020003B
:1002F0004300440043002000410043004D00200023
:1003000069006E0020004600530020004D006F0081
:1003100064006500000000002E0347004400330025
:1003200032005800580058002D0033002E003000D5
:100330002E0030002D0037007A0038007800390098
:100340007900650072000000120100020200004006
:10035000E9288A0100010102030100001458000885
:10036000C4020008DC0200081803000800000000B6
:10037000010000000200000003000000A62D00089C
:10038000D62F0008D02B0008562F0008D02B0008CD
:10039000F22E0008042C00086E300008602E0008C1
:1003A000FE2C00089C2E0008C82E000872300008A1
:1003B000000060416D61696E20697320616C69762F
:1003C000650D0000456E746572696E67206C6F6F15
:1003D000700D000000404E4500F07F450080CD4488
:1003E000CD4C31430000E0400000204170483A20ED
:1003F00025642E256420202F20206D563A20256468
:100400000D0A00005E35000088350000B0350000A0
:1004100088350000FC35000088350000B03500004C
:100420005E3500005E350000FC350000B035000090
:10043000703500007035000070350000B4350000E4
:100440005838000058380000703800005438000058
:1004500054380000B63800007038000054380000EE
:10046000B6380000543800007038000052380000E0
:100470005238000052380000B63800000001020275
:10048000030303030404040404040404050505052C
:100490000505050505050505050505050606060608
:1004A00006060606060606060606060606060606EC
:1004B00006060606060606060606060607070707D8
:1004C00007070707070707070707070707070707BC
:1004D00007070707070707070707070707070707AC
:1004E000070707070707070707070707070707079C
:1004F0000707070707070707070707070808080888
:10050000080808080808080808080808080808086B
:10051000080808080808080808080808080808085B
:10052000080808080808080808080808080808084B
:10053000080808080808080808080808080808083B
:10054000080808080808080808080808080808082B
:10055000080808080808080808080808080808081B
:10056000080808080808080808080808080808080B
:10057000080808080808080808080808000000001B
:10058000000000000000000000000000000000006B
:10059000000000000000000000000000000000005B
:1005A000000000000000000000000000000000004B
:1005B000000000000000000000000000000000003B
:1005C000000000000000000000000000000000002B
:1005D000000000000000000000000000232D302B70
:1005E00020000000686C4C006566674546470000C7
:1005F0003031323334353637383941424344454659
:10060000000000003031323334353637383961621A
:10061000636465660000000079711305407006D6BA
:1006200022D426D24AD04ECE52CC56CA5AC89700AF
:100630000000E780C07997300000E780C0000545E2
:1006400097300000E78040E097300000E780E0FC52
:1006500097200000E780001097200000E780001539
:10066000630605161305803E370400089304043B17
:1006700097200000E780A0FF13854400974000000A
:10068000E780C039014597400000E78020D213057C
:10069000803E97200000E78080FD1385440197404D
:1006A0000000E780A03701451304043BB72901404F
:1006B0003719002097400000E78040CF9389094018
:1006C00013090982930AC40385454E8597000000EB
:1006D000E7802042294597200000E78040F9035534
:1006E000290097400000E780409C4C509730000064
:1006F000E78000410C5497300000E780000C4C5418
:100700002A8B97300000E78020620C589730000059
:10071000E780A00AAA85485897300000E780C060AB
:1007200093050000AA8497300000E780E035634617
:10073000050A032A04002685D28597300000E78049
:10074000202D6353A000D284268597400000E780C7
:10075000C08F131A0501135A0A41528597400000B1
:10076000E780A094AA85268597300000E780C05BCB
:100770000C5C97300000E780A03897400000E780CD
:10078000C08C131605014186635606003306C0402F
:10079000420641865A8532C697400000E780E08ACB
:1007A000324693160501C186D285568597400000D2
:1007B000E7806012014597400000E78020BF1305E5
:1007C000401F97200000E78080EAFDBD130540062A
:1007D00097200000E780A0E941B593040000ADB781
:1007E0004111B727014006C693870740630BF50008
:1007F000B7370140938707806303F502B240410198
:1008000082801305903097000000E780C05D1305DB
:100810009030B2404101170300006700435E1305AA
:10082000A03097000000E780005C1305A030D5B72A
:10083000B727014003A74740B706F1FFFD16758FA4
:1008400023A2E74003A74740598D23A2A7408280F7
:1008500093F7051013F7054089890DC289C75C41DC
:1008600093E707105CC109C75C4193E707405CC18F
:1008700089C51C4593E727001CC5828089C75C4158
:1008800093F7F7EF5CC109C75C4193F7F7BF5CC111
:10089000EDD51C45F59BCDB71C4599C505671307DC
:1008A0000780D98F1CC582807D771307F77FF98F6A
:1008B000D5BF1C45858B89E71C4593E717001CC5F0
:1008C00082801C451307850093E787001CC51C43E5
:1008D000A18BF5FF1C4593E747001CC51C43918B7A
:1008E000F5FF82803727014083278740B7068000C5
:1008F000D58F2324F74082801C4593E707101CC541
:10090000828085476386F50089476382F50282808D
:100910005C55370710FF7D17F98F5CD55C557D1648
:1009200052063707F000798E5D8E50D582801C5DAF
:100930003707D0FF7D17F98F1CDD1C5D7D16520631
:1009400037073000798E5D8E10DD82801547636336
:10095000B704B385E50203284503FD47B397B70005
:1009600093C7F7FFB3F70701B315B600DD8D4CD978
:10097000A54763E9C7068D473306F6020C491D47B4
:100980003317C7001347F7FF6D8F3396C600598E94
:1009900010C98280AD4763E3B702E915B385E5026C
:1009A00003280503FD47B397B70093C7F7FFB3F7D5
:1009B0000701B315B600DD8D0CD95DBFBD47E3E976
:1009C000B7FAD115B385E5020328C502FD47B397F1
:1009D000B70093C7F7FFB3F70701B315B600DD8D76
:1009E0004CD579B7C54763E1C7028D475916330621
:1009F000F60258459D47B397C70093C7F7FFF98F95
:100A00003396C600D18F5CC582801C5D7D4703286C
:100A10008503D1838D8BB385B740ED57B385F50240
:100A2000A547BD053317B7001347F7FF3377070115
:100A3000B315B600D98D0CDD63E1C7020D4733064F
:100A4000E6021C491D473317C7001347F7FF7D8F88
:100A50003396C600598E10C98280C54763E1C7022C
:100A60008D4759163306F60258459D47B397C70080
:100A700093C7F7FFF98F3396C600D18F5CC582808C
:100A800085476386F5008947638DF50082801445AC
:100A9000B705F2FFFD15ED8E14C51845518F18C529
:100AA00082801845E576FD16758F18C51C45D18FD7
:100AB0001CC5828093F71500898909CE91C71C4512
:100AC00037071000D98F1CC589C51C452167D98FF0
:100AD0001CC5828099C71C453707F0FF7D17F98F29
:100AE0001CC5E5D91C4561777D17F98FD5B793F7FC
:100AF000150091C71C4537074000D98F1CC589894F
:100B000091C51C4537072000D98F1CC58280B707C7
:100B10000240938707406316F500914763F3B700DF
:100B200001A0D147B387F502AA979847799B98C748
:100B300023A4070023A6070023A8070023AA070071
:100B4000584193972500BD45B395F500D98D4CC10B
:100B50008280B7070240938707406316F5009147EC
:100B600063F3B70001A0D147B385F5021C4271774A
:100B70001307F70F2E951CC91C465CC98357060145
:100B80005CC51C4554467D8F5C42D58F544AD58F39
:100B9000D98F1CC50347860185476316F7021C459C
:100BA00093E707041CC50347960185476311F702C5
:100BB0001C4593E707081CC58347A60189EF1C4520
:100BC000BD9B1CC582801C4593F7F7FBE1BF1C450C
:100BD00093F7F7F7CDB71C4593E70701DDB7B707E4
:100BE0000240938707406316F500914763F3B7000F
:100BF00001A0D147B385F5022E951C4593E7070266
:100C00001CC58280B7070240938707406316F50032
:100C1000914763F3B70001A0D147B385F5022E9544
:100C20001C4593E717001CC58280F367043082805F
:100C3000171300006700A384011106CE22CC32C432
:100C40002A842EC697100000E7804082B245228594
:100C500097100000E7800085224622856244F2401A
:100C6000B28505611713000067004389B70701408B
:100C700083A607401347F5FFF98E23A0D74083A62C
:100C80004740F98E23A2D74083A68740F98E23A43C
:100C9000D74083A6C740F98E23A6D74081CD85468D
:100CA0006380D50285476300F6040DC28947630956
:100CB000F604828083A60740C98E23A0D740DDB703
:100CC00083A64740C98E23A2D740E9BFB70701409A
:100CD00083A68740558D23A4A74083A6C740758F60
:100CE00023A6E7408280B707014083A68740758F1F
:100CF00023A4E74003A7C740598D23A6A7408280BD
:100D0000B707014003A78740498FDDB73707014088
:100D1000832707405D8D2320A7408280B7070140CD
:100D200023AAA740828093F7050193F8F50099C3A1
:100D3000B3E8C8008147054EBD4E130F8002930FE4
:100D4000800421433316FE00758E1DC213972700C1
:100D5000832205003398EE001348F8FF33785800DB
:100D60003397E800336707016399E50550C918C157
:100D70008507E39967FC054EBD4E130F8002930F64
:100D8000800441433316FE00758E05C61397270075
:100D90000117832245003398EE001348F8FF33789B
:100DA00058003397E80033670701639CE50150C999
:100DB00058C18507E39867FC8280E39AF5FB10C968
:100DC0007DB7E397F5FF10C9E5B7B7170240135792
:100DD00065003E9714438547B397A700D58F1CC382
:100DE0008280B7170240135765003E97144385472A
:100DF000B397A700D58F1CC38280B7170240135743
:100E000065003E9714438547B397A70093C7F7FF44
:100E1000F58F1CC38280B7170240DC433747FFEFD2
:100E20007D17F98F1547630EE5006369A7000D472D
:100E30006370A702371702405CC382801D47E31B23
:100E4000E5FE3A053177798D5D8DB707001011A069
:100E50003A05C98FC5B7B7160240DC42370740FFD5
:100E60007D17F98F5D8DC8C282807971B705000842
:100E700022D441462A8493850528080806D697403F
:100E80000000E7804087B70703049387172002C05C
:100E90003EC202C43EC6371702405C43894689837E
:100EA0008D8B6397D70E5C439396F70063D6060647
:100EB0005C579396F70063DC06045C5758579183A0
:100EC0002183BD8B3D8B938617000907C5476313AC
:100ED000F7005147B7177A0093870720B3D7D70297
:100EE000B387E7023717024058573D8B050733D7C2
:100EF000E702B7160240DC42D442C98313962600AB
:100F0000BD8B6350060293E7070185070DA0B71755
:100F10007A0093870720F9B7B7173D00138707902A
:100F2000C9BFBD46E383D7FE8907638DD704B38766
:100F3000E702B7160240D842101011833D8B32975A
:100F4000034507FFD84233D5A70021831D8B329775
:100F5000034607FED84214102D831D8B3697854615
:100F6000034787FE630CD40005CC89476307F4026E
:100F70008D473355E5006303F4000145B250225418
:100F8000456182809947B307F7020583BA9755B741
:100F9000B7177A009387072069BF3355C500F9BF9B
:100FA0003E85E9BF4111B717004006C6138707C049
:100FB000630EE5086367A702370700409306074002
:100FC0006304D506938707806309F5066312E50A73
:100FD0001305004097000000E780E0E013050040A3
:100FE00035A813870740630CE50637370140130720
:100FF00007C0630DE500631DF5061305404097002B
:101000000000E78040DE1305404009A81305B0301A
:1010100097000000E78020DD1305B030B2404101A9
:10102000170300006700A3DD1305104097000000C0
:10103000E78060DB13051040D5B71305204097000B
:101040000000E78040DA13052040C9BF1305304097
:1010500097000000E78020D913053040C1B7130581
:10106000504097000000E78000D8130550407DB73E
:10107000B2404101828083D7050003D745009376B3
:10108000F5BF1CD5B7370140938707C0418B630A72
:10109000F500FD779387F73FE98F370600406390AF
:1010A000C7061C4193F7F7F81CC183D725001041F0
:1010B00093F70706D18F1CC11C415D8F18C19C4559
:1010C0005CD5B71700406387F6021C4193F7F7CF52
:1010D0001CC183D7C500184193F70730D98F1CC1B5
:1010E000B7370140138707C06316E50003C7E50063
:1010F00023A8E7C25C4993E717005CC982801C41C2
:10110000BD9B55BF1C4193E717001CC18280B717D8
:1011100002409843B706FFE0B1061367170098C373
:10112000D843758FD8C39843B706F7FEFD16758F61
:1011300098C39843B706FCFFFD16758F98C3D84334
:10114000B70601DFFD16758FD8C323A607029843A3
:10115000B706F7EAFD16758F98C33707FF0098C7E3
:1011600094434167D98E94C39307F7FF3717024022
:1011700014431396E60063440600FD17F5FBB7170A
:10118000024098439316E70063C3060001A0D843CA
:10119000B706C4DFFD16D8C3D843D8C3D8431367F6
:1011A0000740D8C3D843758FD8C3D843B706292082
:1011B000558FD8C3D857BD76758FD8D7D857C16645
:1011C000938616F1558FD8D79843B7060004558FEC
:1011D00098C3B7170240984393164700E3DD06FE15
:1011E0009843B7060010558F98C3B717024098432D
:1011F00093162700E3DD06FE9843B7060001558FDE
:1012000098C3B7170240984393166700E3DD06FEC4
:10121000D843719BD8C3D84313672700D8C3371767
:1012200002405C43A18BF5DF8280371702405C43AC
:1012300037060020854689838D8B1306065063860A
:10124000D70081C789466388D700B7177A0093878C
:1012500007201CC282805C439396F70063DB06067E
:101260005C579396F70063D106065C5758579183F5
:10127000BD8B2183938617009377F7001387270090
:10128000C5476313F7005147B7177A0093870720C4
:10129000B3D7D702B387E7023717024058573D8BC1
:1012A0000507B3D7E702B7160240D842D4424983B4
:1012B000939526003D8B63D305021367070105074D
:1012C0003307F70218C28280B7177A009387072086
:1012D000E1B7B7173D0093870790F1B7BD46E3002C
:1012E000D7FE0907E31ED7FC19473387E70285833A
:1012F000BA9785B77971B705000822D47D462A844C
:10130000938505290A8506D697300000E780A03E20
:1013100079468A85094597400000E780C082A2850A
:10132000094597000000E7808009B70500080546D9
:101330009385052C094597400000E780C08001A0F7
:101340007D558280011106CE2EC697300000E780C1
:10135000007F01C9B24589670145DCC1F2400561E2
:1013600082807D55E5BF7D151335250082804111B2
:1013700006C697300000E780807CB2401335150028
:101380003305A040410182807D55828037070020CF
:10139000130747501C43B7160020938686823E955C
:1013A000636BD500B77600209386060063E5A60040
:1013B00008C33E858280FD57EDBF79714ECEAE8960
:1013C000B705000809469385052B22D426D24AD0BA
:1013D00052CC56CA06D62A89714497300000E7805D
:1013E00080763D4AA54AF154B3178A00B3F7370116
:1013F000B3D7870093F7F70F63ECFA0293870703DD
:1014000093F7F70F05469305F1004A857114A3077A
:10141000F10097300000E7800073E31794FCB250AE
:10142000225492540259F249624AD24A456182805A
:1014300093877703F1B7B70700D1D8438843CC43EC
:10144000E39DE5FE8280B70700D223800700A385D5
:1014500007001205B71700D23E9563E3A70082800C
:1014600023A00700C107D5BFB71700D285070A051B
:101470003E9585472300F5008280370700D28347D9
:1014800007000605798993F7170E5D8D2300A700E5
:101490008280B70700D203C5070005813D8982809D
:1014A000411122C426C206C62A84AE8497000000D9
:1014B000E78060FE9147114763E3A7002A8737154D
:1014C00000D20A040D052295834705009376F70F95
:1014D000A145B397E70093F7F70F958DB394B40048
:1014E000B3D7E740C58F93F7F70F2300F500B2405D
:1014F0002244924441018280011122CC2EC606CEA4
:101500002A8497000000E78000F98D47814563E950
:10151000A702371700D20A040D0722978347070056
:10152000B245A1463385A6409205B3D7A74093F5AF
:10153000F50FB397A700CD8F93F7F70F2300F700B0
:10154000F24062442E8505618280F327503093F784
:1015500007FC93E73700739057308280B705000887
:10156000411115469385452B054506C69730000069
:10157000E780605D054597000000E780E0D74111F6
:101580009347F5FF22C406C6139747012A8409E74B
:1015900097000000E780C0FCB7050008154693855A
:1015A000C52B054597300000E780E059228597005C
:1015B0000000E78060D4411106C697000000E78074
:1015C00040B51305700597000000E78000E897001C
:1015D0000000E780C0F7B240410117F3FFFF67004A
:1015E000C3C68280411122C43704002013040400C2
:1015F0009305C40306C626C2AA8497100000E7809C
:10160000003693055403268597100000E7802035A7
:1016100093055402268597100000E7804034B240BD
:1016200022449244014541018280411193051008F2
:1016300006C622C42A8497100000E780E03B8D454F
:10164000228597100000E780203B22859305200823
:1016500097100000E780403AB24022440145410122
:101660008280411106C691E997000000E780A01230
:101670008947B2403E85410182808D468947E39A81
:10168000D5FEB70700200547238AE75097100000D2
:10169000E780804AB707002023A0A752B7070020A1
:1016A00003A74752814771D702978147D9B70547AA
:1016B000639DE5020327050F8357850EB377F70275
:1016C00091EF09CF41118146014606C697100000EF
:1016D000E780203AB240014541018280B7070020EF
:1016E0000547A38AE750014582800945828083C768
:1016F0001500130710026386E70213072002638FA9
:10170000E70613070002639CE70037070020232445
:10171000F750B717002093874781232AF526014504
:101720008280370700201307C7501443B7170020E3
:101730009387478113D686002380D700A380C700F4
:1017400013D60601E182A381D70083464700238197
:10175000C7002328F50C2382D70083465700034790
:101760006700A382D7002383E70083C7750003C700
:101770006500A207D98F232EF50C55B783C7350016
:1017800003C72500A207D98F370700202324F7526B
:1017900079B7B7050020938585509C411305F00F5C
:1017A0006386A704B717002003C6578183C6478105
:1017B000370700202206558E83C667811307C7505E
:1017C00088C1C206558E83C6778193874781E2061A
:1017D000D18E14C383C647002302D70083C65700A7
:1017E00083C76700A302D7002303F7000145828067
:1017F000411106C622C426C2894723020500A30060
:10180000F5002300C50011CA0547630BE60805452E
:10181000B240224492444101828031472301E500D5
:101820001947A301E500A302F500B7040440AE8701
:1018300005472303E500A303E5002A841306C00B34
:1018400081453E8597300000E78040EC05679306B0
:101850000780A69654C19386044014C59386044419
:1018600034DD930607E0A696232CD50A04C18345F0
:10187000340013070790AA8726979306C5000146F0
:10188000636BB60203462400056793860450938772
:10189000C703BA94856501476368C70201458DBFD8
:1018A00021472301E5001147A301E500A302F5004C
:1018B000B7040050ADBF1305072098C288CE0506B7
:1018C0001307070291066DBF94C3A4C3050793864F
:1018D00006029107AE94C9B71C4201112EC6985F4B
:1018E00098478346D10022CC799B06CE26CA98C75A
:1018F0002AC4054732846395E6063707100098DF4F
:10190000D847B706E0FF9386F6FB758FD8C7D84750
:10191000B706F0FFFD16758FD8C7984B13671700F1
:1019200098CB984B058B75FF0D4597100000E7800D
:10193000A0CC0347C1008547631EF7001C409847B1
:101940001367070298C79847059B98C7984713677E
:10195000A70098C7F2406244D244014505618280E5
:10196000D84793D4050193F4F40F13670704D8C73D
:10197000984B1367170098CB984B058B75FF0D4557
:1019800097100000E78040C7B7072D0099C0B70740
:101990003D00184051451CDF97100000E78040C60D
:1019A00049BF71060A062A968D06898250468A0624
:1019B000AE966394B6000145828003C7150083C7C5
:1019C0000500910522075D8F83C7E5FFC2075D8F84
:1019D00083C7F5FFE207D98F1CC2E1BF0D0609825C
:1019E000785D0A062E966394C5002E8582801C437E
:1019F000910593D68700238EF5FEA38ED5FE93D650
:101A00000701E183238FD5FEA38FF5FEE9BF1841BF
:101A100041119A0506C693E505020CCB1C4B93F7C2
:101A20000702EDFF0D4597100000E780E0BCB240D3
:101A30000145410182801841411106C6C1471CCBB6
:101A40001C4BC18BF5FF0D4597100000E780C0BA15
:101A5000B2400145410182801C457D57D8C33707FC
:101A600000C07D17D8CB371700801307078098CFA9
:101A70000347450009E7984F1367070198CF984F30
:101A8000B7360C00A906558F98CF984701451367C4
:101A9000170098C782801C45B70600A04111D8479F
:101AA000FD1622C406C626C2758FD8C7D847B7060A
:101AB00000407976558FD8C70327050C1306F67FAB
:101AC0002A842320070058451443F18E14C314437D
:101AD00014C31443F19A14C3034605008546631AE0
:101AE000D602144393E6360014C313070008D8D374
:101AF000370740001307070898D7370780001307F8
:101B0000070C23A2E7101307001423A4E71023A651
:101B1000E71093048400C145268597000000E78004
:101B200040EF268597000000E78020F15C447D5758
:101B3000814623A8070023AA070098CF23AE0700F9
:101B40000348340013074401B70500481305F00F9C
:101B500063ED0601228597000000E78020F0B24087
:101B6000224492440145410182801C4390436355C5
:101B7000060290434D8E90C323A8070088C71C4FD0
:101B80009043635E060090434D8E90C323A80700E8
:101B900088C7850611076DBF23A00700F1BF23A0EA
:101BA0000700EDB758455C4393E727005CC382808C
:101BB00058455C43F59B5CC382805C459205984325
:101BC0001377F78098C39843D98D8CC3828098414E
:101BD00083870500411102C63D8B63D90706931721
:101BE0002700AA97DC4B8546B396E60036C6944399
:101BF000504513950601634405049443370534FCAE
:101C000013050580E98E94C329EF144603A8070045
:101C100013F56600B766000893868681AA9683C688
:101C20000600B3E6060194C383C6150088435A072D
:101C3000CA06558F498FB7860010558F98C3324713
:101C40005C4E0145D98F5CCE4101828093078700AD
:101C50008A07AA97130607018546DC47B396C60094
:101C600071B7884383D64500C98E75BF9C410387F1
:101C70000500BD8B6355070205473317F7008A0738
:101C8000AA97D04B1C42E176FD16F58F1CC25C452D
:101C90001347F7FF0145D44F758FD8CF82809386C5
:101CA0000701A1078A070547AA973317D700D0472E
:101CB000D1BF90410111B70600E03D8A931726007D
:101CC000AA97D84B06CE1C433EC41C4B3EC6B24717
:101CD000F58F3EC6DC45A5E7B247B7060800D58FAD
:101CE0003EC6B2471CCB8346450085476394F60049
:101CF0009C4D5CCB03C815008547631CF8005C4510
:101D00009C4793F70710B5CFA247B7060020D58FA1
:101D10003EC4A247B7060084D58F3EC4A247D4452F
:101D20001CC385476303F80699C658453396C70018
:101D3000545B558E50DBF24001450561828083D6AD
:101D400045001DE663F3F600B687DCC5B247B7066B
:101D50000800D58F3EC6B247D445D58F83C615003F
:101D60003EC68547E39FF6F6B247B706006085BFDB
:101D7000FD17B697B3D7D7023248CE07B3E70701AE
:101D8000D1BFA247B706001059B78C45C206C18221
:101D9000210597000000E78000C171BF9841D4453C
:101DA0003D8B930787008A07AA9783A8C700B707C8
:101DB00000E003A6080003A808013378F80083D7E1
:101DC000450091C239E33368F800B7070800B3E76C
:101DD000070123A8F8000347450085476315F7006E
:101DE0009C4D23AAF80003C7150085476318F70028
:101DF00083C735009DC7B70700205D8EB7070084F5
:101E00005D8E23A0C800014582801387F6FF3E97B0
:101E10003357F7029316370133E80601B307F70289
:101E20007DB7B7070010D1BF9C4103870500BD8B6C
:101E3000635407028A07AA97DC4B9843635707004D
:101E40009843B7060040558F98C39843B7062000C3
:101E50000145558F98C38280A1078A07AA97DC475E
:101E6000EDB79C4103870500BD8B635A07028A07C3
:101E7000AA97DC4B9843B706E0FFFD16758F98C311
:101E800003C71500854679171377F70F63E7E60058
:101E90009843B7060010558F98C301458280A1076B
:101EA0008A07AA97DC47F9B75C45884FDC4F7D8DE0
:101EB00041811375F5038280A1058A05AA95DC4549
:101EC00098475C45C84B798D82805C45884FDC4FD4
:101ED0007D8D1375F50382805845144B5C5B139719
:101EE00025003A955849B3D7B7009E07084793F79E
:101EF000F70FD58F7D8D82805C55370708606107AD
:101F000098CB834645000547639AE6001305454292
:101F1000C8CB9843B7860080558F98C3828083478B
:101F2000750091CB5C459C47858B91C70327050CB9
:101F30001C43F19B1CC382801C45D84B058B631C42
:101F40000712411126C2C44B9C4F06C622C44AC088
:101F5000FD8C638C04109397C4002A8463D6070019
:101F600097000000E78080119397D40063D70700A3
:101F7000228597000000E7804020856793870780CF
:101F800033F7F40019C318445CCB63DC04008347C7
:101F9000740C3707008093F7F70F2303F40C1C44ED
:101FA000D8CB93F7240081C71C440947D8CB93F7BB
:101FB0008400B1C7832704439C4F99C3228582972D
:101FC000370900201309C9528347090093F7F70F17
:101FD00085C7834709000947850793F7F70F230053
:101FE000F900834709006379F70022859710000004
:101FF000E780201D230009001C442147D8CB93F71C
:10200000040191C7228597000000E780C0229397C2
:10201000340163D70700228597000000E780002E77
:102020009397240163D70700228597000000E7807B
:10203000003A9397B40063DC070083270443DC4F26
:1020400099C3228582971C4437071000D8CB9397F9
:10205000A40063DC0700832704439C5399C32285B3
:1020600082971C4437072000D8CBB24022449244C8
:102070000249410182808280397122DC26DA4AD805
:102080004ED652D456D25AD05ECE62CC06DE66CA46
:102090002A84370A080097000000E78020E12A8997
:1020A0008144B70A0020214B8549994B614C7D1A28
:1020B00063100902F2506254D2544259B259225A62
:1020C000925A025BF24B624CD24C054521618280F0
:1020D00093771900C9CF93FCF40FE685228597000A
:1020E0000000E780A0DD2AC4A247858BA1CF93978B
:1020F0002400A297D8572324370183464400639FC6
:102100003601184B3AC633878403B246B3F646010C
:10211000BA9703D70727158F23AEE726E6852285D2
:1021200097100000E780201383474400639C370129
:1021300091E88347C44263977701228597000000A6
:10214000E780C0DBA247A18B9DC395E0938CCA5268
:1021500083C70C0093F7F70F99CB228597100000E7
:10216000E78020065C5423800C0023A467011359E8
:102170001900850435BF797122D426D24AD04ECEBB
:1021800052CC56CA06D65AC82A8497000000E78067
:1021900000D42A898144130A00088549954A631DA1
:1021A0000900B250225492540259F249624AD24A6A
:1021B000424B05454561828093771900BDC713FBEB
:1021C000F40FDA85228597000000E78020D12AC627
:1021D000B247858B9DCB93972400A297DC4BDA8581
:1021E000228523A4370197100000E780201583473C
:1021F0004400639C370191E88347C44263975701C9
:10220000228597000000E78060CFB24793F7070868
:1022100089CFA685228597000000E780C02193978B
:102220002400A297DC4B23A447011359190085040D
:10223000BDB71C45011102C6984F22CC26CA4AC818
:102240003D9B06CE98CF9C5389462A893EC6324490
:10225000B2443247B24791803D88C583BD8B93F429
:10226000F47F6382D70299466387D70403278900E6
:10227000F24062441C4FD244424993E707011CCF0D
:10228000054505618280FDD0F1473304F4022686BE
:102290002A9483254427210597F0FFFFE7804074A7
:1022A00083274427A697232AF4268327C427BE948E
:1022B000232E942665BFF1473304F4023D830D8B32
:1022C0002A948347C426BD8BD98FCDF3A147E39FC2
:1022D000F4F8930545422146210597F0FFFFE7807A
:1022E00020708327C4270547A107232EF426B707AC
:1022F00000202386E7529DBF5845411122C45C430C
:1023000006C626C2F99B4AC02A845CC381452105C2
:1023100097F0FFFFE780E06F034634009307440126
:1023200001479306F00F636BC7085C447D578544F3
:1023300098CF41670507D8CF2547D8CB84CB9843A2
:102340002285130900041377F78098C3A302040CB5
:1023500097000000E78080BA1C4405677146D8CB1F
:102360009307C4263E85814597200000E780003A08
:10237000AA8523182427228597000000E78060851E
:102380009307840C714681453E8597200000E780C5
:10239000E037130700F82316240D2304E40CAA8564
:1023A000228597000000E780C082B2402303940C8E
:1023B0002244924402490545410182808C4305072D
:1023C000910794C5CC4B94C5B9BF5C457176130693
:1023D000F63F9847D443058393F6F6EFD4C3D4432E
:1023E00093E60610D4C31C45D447F18ED4C7937628
:1023F0003700376700081307C78136970347070080
:102400008D46631ED700A300E500D84789669386F2
:102410000640558FD8C70967D8CB05458280094744
:10242000A300E500D847856693860640558FD8C738
:10243000DDB7F147B387F50279714ECE06D622D4C7
:1024400026D24AD052CC56CA5AC8AA9703A7470DDB
:1024500083A6870D83D7C70C5EC662C4158FAA8971
:102460006373F700BA87714433848502854A8D0708
:10247000B39ABA00139B2500C16B13DA270093CAE5
:10248000FAFF4E9BFD1B4E9413F9F50F138C890038
:1024900083274B01984F337777016378EA0003274E
:1024A000840D8327440D636FF700B2502254925479
:1024B0000259F249624AD24A424BB24B224C05457C
:1024C000456182808354C40C998F63F39700BE8466
:1024D0008325040D9396040193873400C1824A86B4
:1024E000628513DA270097F0FFFFE780C04B832750
:1024F000840D0327040D2697BE948327440D2328BB
:10250000E40C232C940CE395F4F883A7C900D85B62
:1025100033775701D8DBADBF4111014506C697F0AF
:10252000FFFFE780C0943777DC02B707002013076E
:1025300007C0938707536317E5023707400098C326
:102540008D4637170020232ED780884397F0FFFF52
:10255000E780A090B2401305C050410117F3FFFF80
:102560006700E38637A74A04130707206318E500CE
:1025700023A00700371700209546F1B737E7B805C5
:1025800013070780E313E5FC3707C00098C39D4697
:10259000371700204DBF41110146854513056005E1
:1025A00006C697E0FFFFE78060691305C07197F0EA
:1025B000FFFFE780C0813705040097E0FFFFE78059
:1025C0002076014681453705040097E0FFFFE7804C
:1025D000206A3705040097E0FFFFE7806073B24090
:1025E00001468D451305D003410117E3FFFF670046
:1025F000E3648280170300006700830E1703000066
:102600006700E30637050020130585061703000061
:102610006700C392411122C43704002006C6930705
:10262000840683C777008DCB97000000E7804024A5
:10263000B707002003A5075397F0FFFFE780E0816D
:102640001305C05097E0FFFFE7806078130584060C
:1026500097000000E780E08C2244B2403705040078
:10266000410117E3FFFF6700A36B011122CC4EC6A7
:1026700052C406CE26CA4AC8AA8997F0FFFFE7804F
:10268000C0DB2A8A2E8497F0FFFFE78000DBAA8454
:102690002E896314AA00E308B4FE0564370A0020FB
:1026A000130404FA97F0FFFFE78020D983270A502C
:1026B000330795403335E500B3D78702B38525410D
:1026C000B38737036394A500E36EF7FCF2406244DE
:1026D000D2444249B249224A05618280011122CC8A
:1026E0004EC652C406CE26CA4AC8AA8997F0FFFF32
:1026F000E780A0D42A8A2E8497F0FFFFE780E0D3FA
:10270000AA842E896314AA00E308B4FE37143D009E
:10271000370A00201304049097F0FFFFE780E0D110
:1027200083270A50330795403335E500B3D7870236
:10273000B3852541B38737036394A500E36EF7FCA7
:10274000F2406244D2444249B249224A0561828041
:10275000411106C697000000E780801173500032D7
:1027600097E0FFFFE780A04C094597E0FFFFE78077
:10277000604C97000000E78060DA97000000E78077
:1027800080E797000000E78040E1B2403706002074
:1027900037050020130646048545130585064101CB
:1027A000170300006700633DB70700209387870683
:1027B00003C5670C751513351500828001114AC8D1
:1027C0004EC606CE22CC26CA52C456C2AE89328923
:1027D00097F0FFFFE78060C69307002063F42701AE
:1027E00013090020E1649384046AAA94370A002044
:1027F00033B5A400D28A3304B50083475A5199EB0C
:1028000097F0FFFFE78060C3E3E985FE6314B4003F
:10281000E36595FE37060020A38A0A50014493071A
:102820008654631B24039316040137050020C182DC
:1028300013068654930510081305850697000000BB
:10284000E78020232285F2406244D2444249B249C3
:10285000224A924A056182803387890083460700B5
:102860003387870005042300D70065BFB7170240F0
:102870009843B706FFE0B1061367170098C3D84323
:10288000758FD8C39843B706F7FEFD16758F98C3AA
:102890009843B706FCFFFD16758F98C3D843B7065B
:1028A00001DFFD16758FD8C323A607029843B7062C
:1028B000F7EAFD16758F98C33707FF0098C7944352
:1028C0004167D98E94C39307F7FF3717024014432B
:1028D0001396E60063440600FD17F5FBB7170240A8
:1028E00098439316E70063C3060001A0D843B706D8
:1028F000C4DFFD16D8C3D843D8C3D84313670740F5
:10290000D8C3D843758FD8C3D843B7061D20558F79
:10291000D8C3D857BD76758FD8D7D857B70600011A
:1029200013671700D8D79843558F98C3B71702403D
:10293000984393166700E3DD06FED843719BD8C326
:10294000D84313672700D8C3371702405C43A18BD5
:10295000F5DF17F3FFFF6700838D411106C603C73C
:10296000550083C7450003C6250022075D8F9317D6
:102970008601E18763D20706F1479376F607B386AF
:10298000F6029387860CAA9603C8860CAA9713684A
:1029900008F82384060D83C607003D8A1377F70FD6
:1029A000C19A558E2380C7002392E70003C73500E4
:1029B000BE850D8B93162700370700081307C7360F
:1029C00036971843A380E70097F0FFFFE780602069
:1029D000B240014541018280F146B306D602938799
:1029E000C626AA9603C8C626AA971378F807238690
:1029F000062755B741119397850106C6E18763D233
:102A0000070293F5F507F147B385F5029385850C29
:102A1000AA9597F0FFFFE780A025B240014541014C
:102A20008280F147B385F5029385C526D5B793F724
:102A3000F507F145B387B702411106C605479385EF
:102A4000C726AA9723AAC72623ACD72623AE0726D4
:102A500083464500AA956394E60023A2C72897F011
:102A6000FFFFE780E033B24001454101828093F7E8
:102A7000F507F145B387B702411106C605479385AF
:102A8000870CAA9723A8C70C23AAD70C23AC070C42
:102A900083464500AA956394E60023A0C70E97F0ED
:102AA000FFFFE7804021B240014541018280411192
:102AB0009397850106C6E18763D5070293F5F5076D
:102AC000F147B385F5029385850CAA958547238147
:102AD000F50097F0FFFFE7806035B2400145410106
:102AE0008280F147B385F5029385C526F9BF411170
:102AF0009397850106C6E18763D4070293F5F5072E
:102B0000F147B385F5029385850CAA9523810500CD
:102B100097F0FFFFE7802035B240014541018280F8
:102B2000F147B385F5029385C526C5B717F3FFFFB7
:102B30006700E308F147B385F502AA9503D5C527D9
:102B40008280411106C697F0FFFFE780A006B240E1
:102B50000D45410117030000670083AA411106C615
:102B600097F0FFFFE7804004B2400D454101170395
:102B700000006700E3A8411106C622C426C29304E0
:102B800085002328C5422E86A6852A8497F0FFFF5C
:102B9000E78040C64C400840268697F0FFFFE7805C
:102BA000E0D3228597000000E78080FB228597F024
:102BB000FFFFE78080EE228597000000E780A0F805
:102BC00085472303F40CB2402244924441018280A1
:102BD0000545828003254541834705002310F60003
:102BE000828003258541834725002310F6008280DB
:102BF000832705428A05AE97884383470500231043
:102C0000F6008280411122C426C206C683C7050091
:102C10002A84AE848D8B8DCF05476385E70C03270F
:102C2000C40D054561C783C7740083C66400A2074D
:102C3000D58FCDCF6371F70C8357C40C0145636703
:102C4000F70A3375F70255E98547A306F44279A8D8
:102C500083C7250083C535000947A205DD8D93D7BD
:102C6000850093F5F50F638CE704636BF702054766
:102C7000E397E7FA1306C50D97000000E780C0F55B
:102C80002328A40C83C7740003C76400A207D98F4C
:102C900013070004E395E7F8A147232EF40C41B78E
:102CA0000D476387E7023D47E39BE7F68327C5416E
:102CB00003C727002328F50C231EE50C8DB7130648
:102CC000C50D97000000E78000F22328A40C81BF07
:102CD0009547E3E6B7F41306C50D97000000E780BB
:102CE00060F1E5B783270543DC478297B240224471
:102CF000924441018280232EF40C0145C5BF41114D
:102D00004AC006C622C426C283C725003709002050
:102D1000130949532300F900854663EDF600034784
:102D2000650C89442A841377F70F630797000D46D3
:102D30006309C702854439A8814489CF83270543A5
:102D40008545DC438297834709002302F40C8D47B5
:102D50002303F40CB24022442685024992444101E7
:102D6000828091EF8327054381459C478297834763
:102D700009002303940C81442302F40CE1BF834730
:102D8000450C8144E388D7FC8327054385459C4750
:102D90008297834509008327044322852302B40CCC
:102DA000DC43829745BF83C6550003C7450003C671
:102DB0000500A206D98E0D8A8545AA8713F7F60F5E
:102DC0006303B60411C689456302B60605458280D1
:102DD0000347650C89466388E6000347650C8D460A
:102DE00005456394E60483C6274103C7074189C6A6
:102DF000B336E00093E62600370700201307875319
:102E00002300D70029A88346650C0D460545631E9F
:102E1000D600636CE500370700201307875323A80B
:102E2000E70C094723AEE70C014582800346650C99
:102E30008D450545E39BC5FEE206E18663DB0600A2
:102E4000F1461377F7073307D7023E978346A70C5F
:102E500065B7F1463307D7023E978346E72669BF39
:102E60000347650C8946AA871377F70F6307D700D6
:102E70008D466301D702054582800347450C054511
:102E800065FF1387470C23A8E70C054723AEE70C23
:102E9000014582800347450C79DFE5B78347650C20
:102EA0000D476311F70203C74500854763EAE70052
:102EB00003270543232EF50C814705072328E50C3E
:102EC0003E8582808547EDBF8347650C0D476310C3
:102ED000F70203C74500854763E9E70083270543F9
:102EE00003C72500A380E70081473E858280854790
:102EF000EDBF03C7550083C645002207558F01CBA0
:102F0000054582800545B24022444101828003C7C5
:102F1000750083C665002207558F7DF3411122C4D9
:102F200006C683C525000347650C8D4693F5F50756
:102F3000A302B50C2A84E387E6FC97000000E78033
:102F400020BF8347540C91C789472303F40C0145E4
:102F50005DBF8547DDBF411106C622C483C705009A
:102F60002A878D8B8DCF894605446391D706834789
:102F7000650C0D470544631BF70483C7350003C781
:102F800025000144A207D98FB1E383C5450093F71B
:102F9000F5078DCF97000000E780A0B105A8834713
:102FA000650C89466388F6008347650C8D460544A9
:102FB000639EF60083C7350083C625000144A2073F
:102FC000D58F85466394D7002309F7402285B24008
:102FD000224441018280411126C206C622C44AC051
:102FE00003C70500AA840D8B29C7894605496319C3
:102FF000D7060347650C8D4605496393E60603C76C
:10300000350083C6250001492207558F31EB03C7E0
:1030100045009376F707A9C62E84BA85970000006D
:10302000E78020AD83A70443A2852685DC478297ED
:1030300005A80347650C89466388E6000347650CCD
:103040008D460549639EE60003C7350083C625000B
:1030500005492207558F631527012389044001493B
:10306000B24022444A85924402494101828001458E
:1030700082800145828083C7150013972700B70718
:1030800000089387C737BA9703A3070002838346D4
:10309000650C0D4685476310D60283C645008547FB
:1030A00063EBD70083270543411106C6DC478297AF
:1030B000B240410182803E8582800145828041117B
:1030C0009305000806C622C42A8497000000E78002
:1030D000409E2285814597000000E780809D2285E3
:1030E0002244B240410117F3FFFF670023E18356FA
:1030F000C50D0326050D4111814522C406C62A844B
:1031000097000000E780E0960357C40C8326C40DA7
:1031100089476373D70085472306F442B2402244AF
:103120000145410182808356052803264527411128
:10313000814522C406C62A8497000000E780608F7C
:10314000035704278326042891476373D7008D47CC
:103150002306F442B24022440145410182804111DC
:1031600006C622C495472306F5428146014681459D
:103170002A8497000000E780C08F228597F0FFFF28
:10318000E780C0D7B240224401454101828041110D
:1031900006C622C499472306F54281460146814569
:1031A0002A8497000000E780C088228597F0FFFFFF
:1031B000E780C0D4B2402244014541018280832788
:1031C000454203278542011122CC3EC43AC606CEB1
:1031D00093F70706130700022A84638AE70213079E
:1031E0000004638CE702B9EF2C0097000000E78031
:1031F000C0E829E98357E1009DE722859700000098
:10320000E78020F6F24062440145056182802C008F
:1032100097000000E780E0E7E9BF2C00970000007E
:10322000E780E0E9F9B783078100228563D70700CB
:1032300097000000E780E0EBF1B797000000E7801F
:10324000C0EEC9B72C00228597000000E78060E738
:1032500055BF797106D622D40018232EA4FCAE8760
:10326000A30DF4FC8347B4FDC1EB8327C4FD938712
:10327000C7262326F4FE8327C4FD83C7C7420D4714
:103280006386E70011476386E7024DA08327C4FEEB
:10329000DC4B0327C4FE035747003387E7408327EF
:1032A000C4FED8CB0325C4FD97000000E780E0E70B
:1032B000B5A88327C4FD83C7670C13F7F70F8D47A5
:1032C0006311F7028327C4FD83A70743DC4B91CB2F
:1032D0008327C4FD83A70743DC4B81450325C4FD39
:1032E00082978327C4FE23AA07000325C4FD970005
:1032F0000000E78000E71DA88327C4FD83A70743DC
:10330000DC4B8DC78327C4FD83C7670C13F7F70F0A
:103310008D47631DF7008327C4FD83A70743D84B60
:103320008347B4FDBE850325C4FD029781473E85D2
:10333000B250225445618280797106D622D4001899
:10334000232EA4FCAE87A30DF4FC8347B4FDDDEB74
:103350008327C4FD9387870C2326F4FE8327C4FDAF
:1033600083C7C74205476386E70009476386E702CC
:10337000E1A08327C4FEDC4B0327C4FE03574700AC
:103380003387E7408327C4FED8CB0325C4FD9700CD
:103390000000E78000D64DA08327C4FD83C7D74235
:1033A00099CF8146014681450325C4FD97F0FFFF73
:1033B000E780206C8327C4FDA3860742B5A8832736
:1033C000C4FD83C7670C13F7F70F8D476311F7022E
:1033D0008327C4FD83A707439C4B91CB8327C4FD60
:1033E00083A707439C4B81450325C4FD8297832710
:1033F000C4FE23AA07000325C4FD97000000E78050
:1034000040D91DA88327C4FD83C7670C13F7F70FA6
:103410008D476313F7028327C4FD83A707439C4BA3
:1034200081CF8327C4FD83A70743984B8347B4FD0F
:10343000BE850325C4FD029781473E85B2502254C4
:1034400045618280797126D2AA841305206006D650
:1034500022D497E0FFFFE78080971305906097E004
:10346000FFFFE780C0961305005097E0FFFFE7805D
:1034700000960D4597E0FFFFE780209A3715014041
:10348000A9460D4681451305058097E0FFFFE780BB
:10349000C089372401401305044097D0FFFFE7801F
:1034A0006034014597D0FFFFE780C0380546894565
:1034B0001305044097D0FFFFE780C0390546930508
:1034C00000101305044097D0FFFFE780A038814526
:1034D0001305044097D0FFFFE780403C094685452F
:1034E0001305044097D0FFFFE780E04189460D4671
:1034F00081451305044097D0FFFFE780604589466A
:10350000054685451305044097D0FFFFE7804044FA
:1035100037060E0085451305044097D0FFFFE7806E
:103520006056054685451305044097D0FFFFE780A8
:10353000A0589DCC0546930500401305044097D044
:10354000FFFFE7802031054689451305044097D0E9
:10355000FFFFE780403B97D0FFFFE780E0389D46C4
:10356000414681451305044097D0FFFFE780204A7C
:1035700081453705024097D0FFFFE7808059372407
:1035800001409307C4443EC213070040B717002010
:103590003AC893870782094750003EC63ACA930744
:1035A000001009678145370502403EC43ACC231E0E
:1035B000F100230F010097D0FFFFE780C05981453C
:1035C0003705024097D0FFFFE780A06181453705AE
:1035D000024097D0FFFFE78020631305044097D097
:1035E000FFFFE780A0311305044097D0FFFFE7807D
:1035F000802C1305044097D0FFFFE780C02C1305F3
:103600000440854597D0FFFFE780A04EB25022547A
:1036100092544561828041111305306006C697D0EF
:10362000FFFFE780C07AB2403715014093060002E1
:103630000D46D145130505C0410117D3FFFF6700B3
:10364000C36E01113715004006CE97E0FFFFE780FB
:10365000A0959307B0063EC09307703E3EC48A858E
:103660008547371500402307F10023120100231678
:10367000010097E0FFFFE78040A03715004097E08A
:10368000FFFFE78060A8F240056182800000000033
:10369000000000000000000000000000000000002A
:1036A000000000000000000000000000000000001A
:1036B000000000000000000000000000000000000A
:1036C0005D7106C012C216C41AC61EC82ACA2ECC04
:1036D00032CE36D03AD23ED442D646D872DA76DCF2
:1036E0007ADEFEC0F322103496C0F322003096C278
:1036F000F322407C96C4732520348A8597E0FFFF2F
:10370000E78020E88642739012349642739002302C
:10371000A6427390427C82401242A2423243C2438C
:103720005245E245724682561257A2573258C25845
:10373000525EE25E725F864F61617300203000006E
:10374000000000005D7106C012C216C41AC61EC871
:103750002ACA2ECC32CE36D03AD23ED442D646D821
:1037600072DA76DC7ADEFEC073D0E87E7350F97EC2
:1037700073D0B97EF390D07E73700430B6427390EC
:10378000427CA64273901234964273902234824057
:103790001242A2423243C2435245E2457246825629
:1037A0001257A2573258C258525EE25E725F864F7D
:1037B000616173002030011126CA935475014AC813
:1037C0004EC652C49319950006CE22CC56C293F42D
:1037D000F40F2E8A93D999001359F501B5C49307B4
:1037E000F00F6382F4088E09B7070004B3E9F9000B
:1037F000938414F8814A13557A0113149A001375AF
:10380000F50F2580135AFA012DC99307F00F6305B0
:10381000F5080E04B70700045D8C130515F8814701
:1038200093962A00DD8EFD163947334649013385CC
:10383000A440636CD70697D5FFFF9385E5BC8A0645
:10384000AE9698422E970287638609024E8597109E
:103850000000E78080919307B5FF9304A0F8B39927
:10386000F900898C41BF9304F00F894AE38509F878
:103870008D4A51B78144854ABDBF0DC4228597103A
:103880000000E780808E9307B5FF3314F4009307A0
:10389000A0F83385A74061B71305F00F894749D0D9
:1038A0008D47BDBF01458547A5BF1318540063FE72
:1038B000890A7D1581461354080133D38902C167F3
:1038C000FD17B377F800C18233F789029A85B38870
:1038D00067024207558F637C170142979305F3FFF8
:1038E00063670701637517019305E3FF4297330789
:1038F0001741B358870233778702B38617039317AC
:103900000701468763FCD700C2971387F8FF63E778
:10391000070163F5D7001387E8FFC29713940501E9
:10392000958F598CB337F0005D8C1307F507635AF8
:10393000E0089377740099C79377F4009146638306
:10394000D70011049317440063D80700B70700F8A5
:10395000FD177D8C130705089307E00F0D8063D9D1
:10396000E70201441307F00F25A09396F90193D9BC
:10397000190091B74A864E84D6870947E383E7FE4C
:103980000D47638FE7060547E391E7FA01440147D6
:1039900026041377F70F5E072580598C1315F6015F
:1039A000418DF2406244D2444249B249224A924A8D
:1039B000056182805286D1B73704400001468D47A9
:1039C0006DBF8547998F6D47E342F7FC1305E50905
:1039D000B357F4003314A400333480005D8C937724
:1039E000740099C79377F40011476383E7001104CB
:1039F000931754000D80E3DC07F80144054749BFE5
:103A0000370440001307F00F014659B7935675016C
:103A1000B7078000FD1713D7750193F6F60F13084B
:103A2000F00F33F6A7001377F70FED8F7D81FD813F
:103A30006395060139C27955828063130701E5FF5A
:103A40009DEE11E38DCB01CA6314B5006359D70015
:103A50000DC17D5582807D5591C52E85828063D4B0
:103A6000E60065D98280E3E5C7FEE36CF6FE01451A
:103A700082800545828065DEE1BFE302D7FC69F7FD
:103A8000E1DBD9B793567501B7078000FD1713D74F
:103A9000750193F6F60F1308F00F33F6A7001377AE
:103AA000F70FED8F7D81FD816395060139C20945D0
:103AB000828063130701E5FF9DEE11E38DCB01CA00
:103AC0006314B5006359D7000DC17D5582807D55C3
:103AD00091C52E85828063D4E60065D98280E3E5B6
:103AE000C7FEE36CF6FE014582800545828065DEF7
:103AF000E1BFE302D7FC69F7E1DBD9B701114AC89E
:103B00001359750126CA4EC656C29314950006CEA7
:103B100022CC52C41379F90FAE8AA5809359F501CE
:103B2000630709069307F00F6302F9088E04B707CD
:103B30000004DD8C130919F8014A13D57A01139496
:103B40009A001375F50F258093DAFA012DC99307B2
:103B5000F00F6305F5080E04B70700045D8C13052C
:103B600015F8814713172A005D8F4A957D17B945CF
:103B7000B3C659011306150063EBE50697D5FFFFA1
:103B80009385458C0A072E9718432E9702878DC47C
:103B9000268597000000E780405D9307B5FF130975
:103BA000A0F8B394F4003309A94079B71309F00FD2
:103BB000094AC1D40D4A51B70149054ABDBF0DC4D8
:103BC000228597000000E780405A9307B5FF331421
:103BD000F4009307A0F83385A74061B71305F00FF1
:103BE000894749D08D47BDBF01458547A5BFC167FE
:103BF0001383F7FF13D7040193550401B3F4640052
:103C000033746400B3888402330887023304B70234
:103C1000B385950293D40801C295AE9463F3040171
:103C20003E94B3F76400C207B3F86800C6971397D1
:103C30006700C1803337E000E9832694D98F1A04E6
:103C40005D8C9317440063D70706935714000588CB
:103C50005D8C1307F6076351E0069377740099C7EC
:103C60009377F40091456383B700110493174400E0
:103C700063D80700B70700F8FD177D8C1307060807
:103C80009307E00F0D8063DDE70601441307F00F93
:103C900085A8CE862684D2870947E388E7FE0D47AC
:103CA000638BE7040547E396E7FA0144014789A8D7
:103CB000D686DDB72A8671BF8547998F6D47E34663
:103CC000F7FE1306E609B357F4003314C400333487
:103CD00080005D8C9377740099C79377F400114747
:103CE0006383E7001104931754000D80E3D007FCB1
:103CF0000144054731A0370440001307F00F814607
:103D000026041377F70F5E072580598C1395F6016B
:103D1000418DF2406244D2444249B249224A924A19
:103D2000056182803707800041117D179356750128
:103D300013D87501B377A70026C26D8F4AC093F6DA
:103D4000F60F1378F80F06C622C41306F00F93542B
:103D5000F50136898E074285FD810E076313C80081
:103D600019E393C5150033860641639D9510635B87
:103D7000C00663110804630707267D160DE6BA978F
:103D80003685139757006359070C05051307F00F85
:103D90006300E5263707007E93F617007D178583BD
:103DA000F98FD58F55A89305F00F639CB6001305C6
:103DB000F00F5DA09305F00FE38BB6FEB70500048E
:103DC0004D8FED4563D4C500054755BF93050002EF
:103DD0003355C7003386C5403317C7003337E0007B
:103DE000498F71BF39C63306D84089EE638E071EEE
:103DF0007D1619E2BA9771B79306F00F631BD800CE
:103E0000BA8775B79306F00FE30CD8FEB706000427
:103E1000D58FED4663D4C6008547E9BF93060002FF
:103E2000918EB3D5C700B397D700B337F000CD8FCD
:103E3000D1B7138616001375E60F0DED8DEA638575
:103E4000071A19CBBA97139757006357070037071C
:103E500000FC7D17F98F054513F77700630B0718F2
:103E600013F7F70091466306D718910759A2C9DBEB
:103E70001DDF29A29306F00F630AD616BA97858331
:103E80003285D9BF6356C006631C0802368569D7E0
:103E90007D1601EE998F13975700E35F07FA3704F9
:103EA00000047D147D8C2A89CDA89305F00F13059D
:103EB000F00FE383B6FAED4563DEC500054735A094
:103EC0009305F00F1305F00FE388B6F8B70500046B
:103ED0004D8FD5B7930500023355C7003386C540D3
:103EE0003317C7003337E000498F998F368565B7A0
:103EF00031CA3306D84099EEB1CF7D1609E6B30733
:103F0000F740AE8449BF9306F00F631CD800BA8710
:103F1000AE8471BD9306F00FE30BD8FEB706000424
:103F2000D58FED4663D4C6008547D1BF9306000206
:103F3000918E33D8C700B397D700B337F000B3677B
:103F4000F80075BF138516001375E50F15ED85E6AE
:103F500081E719CFBA8711A801D3B386E74013963A
:103F6000560063560600B307F740AE84F5B5E1EAA4
:103F700081478144BDA8E39D07EE51FB8144B7070B
:103F800000021305F00FB5A03384E74093165400E8
:103F900063DF06023304F740AE84228597000000F9
:103FA000E780A01C6D153314A40063462503330578
:103FB0002541050513070002B357A4003305A740A8
:103FC0003314A40033348000C18F014571B571F4FE
:103FD0008147014579BFB70700FCFD173305A940AC
:103FE000E18F9DBD36858DBDBA87BDB51305F00F38
:103FF000814713975700635B070005051307F00F10
:104000006301E504370700FC7D17F98F1307F00FF4
:104010008D836316E50081C7B7074000814413759F
:10402000F50FB2402244A6071317750113D5970068
:10403000FE04598D458D0249924441018280B68724
:1040400021BD8147E1B737068000135775019307FB
:10405000F6FF1377F70F9305E007E98F9356F50105
:1040600063F1E5049305D00963F8E50037050080A6
:104070001345F5FF3695828033E5C7009307500955
:1040800063DAE7001307A7F63315E50081CE3305A1
:10409000A0408280930760093387E7403355E500ED
:1040A000F5B701458280411106C622C426C2AA87FF
:1040B00045C91357F5413344A700198C9354F501B2
:1040C000228597000000E780400A9307E009898F66
:1040D000130760096346F70221476355A70061157E
:1040E0003314A400260493F7F70FDE0725801395F9
:1040F000F4015D8C418DB2402244924441018280A2
:1041000013079009635DF7001547098F9306B50102
:104110003357E4003314D40033348000598C1547EE
:104120006356A7001307B5FF3314E400370700FCFC
:104130007D1793767400618F91C63D889146630325
:10414000D40011079316570063D90600B70700FC87
:10415000FD177D8F9307F009898F1354370059B7E6
:104160008144014441B7C1676376F5029307F00FBC
:10417000B3B7A7008E07130700021D8FB357F500D2
:1041800017C5FFFF1305C52FAA9703C50700330501
:10419000A740828037070001C147E36EE5FCE14795
:1041A000D9BFAA8581460146014517130000670063
:1041B00043BE411122C406C697170000938727C645
:1041C0002A8491C7814597100000E78040C5971762
:1041D00000009387276588431C5591C382972285E9
:1041E00097D0FFFFE780401183D7C500011122CC93
:1041F00026CA06CE4AC84EC613F78700AA842E8464
:104200007DE7D8416347E000B8416344E0000145E1
:10421000D9A058546DDF03A904009396370123A059
:10422000040063D1060868488357C400918B99C77E
:104230005C401D8D5C5899C33C401D8D5C540C50F6
:104240002A86814626858297FD570357C400631D41
:10425000F5009440F54763E7D708B7074020850786
:10426000B3D7D700858BBDCF1C48232204001CC0C8
:104270009317370163D80700FD576314F5009C407E
:1042800091E368C84C5823A02401D1D1930744047A
:104290006387F500268597000000E7802048232AE1
:1042A0000402B5B70C508546014626850297FD5796
:1042B000E31CF5F69C40ADDB75476385E700594785
:1042C0006395E70023A0240199B78357C40093E7BF
:1042D00007042316F400F2406244D2444249B24932
:1042E00005618280136707042316E400EDB783A9F4
:1042F0000501E38E09F003A905008D8B23A035018C
:1043000033093941014791E3D84918C4E35120F1F9
:104310001C540C50CA864E8626858297634AA0009C
:104320008357C4007D5593E707042316F40065B74F
:10433000AA993309A940D9BF9C49ADC7011122CC24
:1043400006CE2A8409C91C4D99E72EC697000000A5
:10435000E780A015B24597C7FFFF93876724639E48
:10436000F5004C408397C5008DCB22856244F24016
:10437000056117030000670063E797C7FFFF938796
:1043800027246394F5000C44F1BF97C7FFFF938780
:10439000271FE399F5FC4C44F1B7F2406244014514
:1043A0000561828001458280AA8511ED9717000082
:1043B00093874747884397050000938525F817039F
:1043C00000006700E32597C7FF17938727158843E9
:1043D00017030000670083F6411122C406C62A8431
:1043E0002316B5002317C50023200500232205004E
:1043F000232405002322050623280500232A05007F
:10440000232C0500214681451305C50597000000B2
:10441000E780C02F970700009387E7645CD0970779
:1044200000009387A7671CD4970700009387A76CA9
:104430005CD4970700009387C76F00D01CD8B240A8
:1044400022444101828097050000938525EF1703E0
:1044500000006700E31C411126C213068006938406
:10446000F5FFB384C4024AC02E8922C406C69385D0
:10447000440797000000E780E0352A8411CD23200F
:10448000050023222501310508C4138684068145D1
:1044900097000000E78080272285B24022449244A2
:1044A0000249410182801C4DC9E7411106C622C460
:1044B00097070000938767F91CD59717000093872B
:1044C00067369C432324050423260504232805047A
:1044D0006314F50085471CCD2A8497000000E7800F
:1044E000A00548C0228597000000E780E00408C4CA
:1044F000228597000000E780200448C44840014618
:10450000914597000000E78060ED08440546A54509
:1045100097000000E78080EC48440946C9459700B1
:104520000000E780A0EB85471CCCB240224441014B
:10453000828082804111971700009387A72E26C2A0
:1045400084434AC006C69C4C22C42A8991E726852A
:1045500097000000E78060F5938484048044DC4089
:10456000FD1763D607009C40ADC38440C5BF031749
:10457000C40029EBC1778507232204062320040009
:1045800023220400232404005CC423280400232ADB
:104590000400232C0400214681451305C40597001F
:1045A0000000E780A016232A0402232C04022324FF
:1045B0000404232604042285B24022449244024982
:1045C000410182801304840661BF91454A859700AA
:1045D0000000E78080E888C02A8441F9B1472320A1
:1045E000F900D1BF4111971700009387E72322C438
:1045F00017140000130444231D8C26C206C6098428
:10460000BE8411E4B24022449244410182807D1470
:1046100093172400A6979C438297E5B7797122D41B
:104620004AD052CC56CA5AC85EC606D626D24ECEFC
:104630002A8AAE8A130485040149054BFD5B09EC07
:10464000B25022544A8592540259F249624AD24ADF
:10465000424BB24B45618280044483294400FD19DA
:1046600063D409000040E1BF83D7C400637BFB0033
:104670008397E40063877701A6855285829A336920
:10468000A90093848406E1BF411197170000938726
:10469000A71922C417140000130404191D8C26C284
:1046A0004AC006C6098481443E89639684029717EE
:1046B000000093876717171400001304E4161D8C7D
:1046C000098481443E89639F8400B240224492441D
:1046D00002494101828093972400CA979C43850434
:1046E0008297E1B793972400CA979C4385048297E9
:1046F000D9BF2A8309CA83830500230073007D166E
:10470000050385056DFA82802A8311C62300B30054
:104710007D16050365FE8280DDC983A7C5FF4111B3
:1047200022C406C626C21384C5FF63D307003E9485
:10473000AA8497100000E780C09297C7FF1793875D
:1047400027E09C4385E32322040097C7FF1723A992
:1047500087DE2244B24026859244410117130000AF
:1047600067004390637EF40014403307D4006396DF
:10477000E7009843DC43369718C05CC0F9B7BA87A6
:10478000D84319C3E37DE4FE94433386D700631F07
:1047900086001040B29694C33386D700E31BC7FA55
:1047A00010435843B29694C3D8C365B76375C40029
:1047B000B1479CC079BF1040B306C4006316D70050
:1047C00014435843B29614C058C0C0C359B782802E
:1047D000011126CA93843500F19806CE22CC4AC82E
:1047E0004EC6A104B14763F3F406B14463E2B406D4
:1047F0002A8997100000E780C08697C7FF17938724
:1048000027D498433A8439EC97C7FF17938787D307
:104810009C4399EB81454A8597000000E780402141
:1048200097C7FF1723A0A7D2A6854A859700000047
:10483000E7800020FD59631F3507B1472320F900A9
:104840004A8597100000E780E08129A0E3D004FAB0
:10485000B1471CC10145F2406244D2444249B249C9
:10486000056182801C40858F63C30704AD4663F6F3
:10487000F6001CC03E9404C001A85C406317870288
:1048800017C7FF17232EF7CA4A8597000000E78055
:10489000607D1305B4009307440061993307F54028
:1048A0005DDB3A94898F1CC07DB75CC3F1BF228762
:1048B000404091BF130435007198E30E85FAB305AB
:1048C000A4404A8597000000E7808016E31535FB79
:1048D000ADB739713EDA2ED232D436D63AD842DC70
:1048E00046DE97C7FF17938767C322CC804326CA4B
:1048F00006CEAA8401C81C4C91E7228597000000CF
:10490000E780A0BA0C4454102686228536C697004C
:104910000000E780A07CF2406244D24421618280A2
:10492000011126CA4AC806CE22CC4EC652C4AA8459
:104930002E8919C51C4D89E797000000E780E0B675
:104940009C4C804491E7268597000000E780E0B505
:1049500097C7FFFF9387C7C4631FF402C040835704
:10496000C400A18BA9CB1C48B9C7FD59294A1C44D6
:1049700083450900FD17A5E11CC463D707082286FB
:10498000A945268597000000E780601DFD57630B51
:10499000F50229450DA897C7FFFF938767C26314E7
:1049A000F40080446DBF97C7FFFF938767BDE3188E
:1049B000F4FAC0446DB7A285268597000000E78011
:1049C000202B45D57D55F2406244D2444249B2493C
:1049D000224A056182801CC4050963D70700184C70
:1049E00063CBE700638945011C401387170018C09B
:1049F0002380B700ADBF2286268597000000E780A0
:104A00000016E31635F77DBF1C401387170018C04A
:104A100029472380E700B5BF97C7FF17938707B0E3
:104A2000AA858843170300006700C3EF411122C421
:104A30002A842E8597C7FF1723A807DE06C697D0BE
:104A4000FFFFE780E094FD576319F50097C7FF1754
:104A5000938787DD9C4391C31CC0B240224441012F
:104A60008280411122C42E848395E50006C69710EA
:104A70000000E780A092634905007C48AA977CC8A3
:104A8000B2402244410182808357C4007D777D1764
:104A9000F98F2316F400EDB783D7C500011122CC9E
:104AA00026CA4AC84EC606CE93F70710AA842E849B
:104AB0003289B68989CB8395E500894601469700FE
:104AC0000000E780A0458357C4007D777D17F98FEC
:104AD0002316F4008315E4006244F240CE864A8631
:104AE000B24942492685D244056117030000670098
:104AF0008314411122C42E848395E50006C69700D5
:104B00000000E780A041FD570357C400631BF50078
:104B1000FD77FD17F98F2316F400B24022444101BE
:104B200082808567D98F2316F40068C8FDB7839506
:104B3000E500170300006700033B17D3FFFF670082
:104B4000C38297C7FF179387679DB2862E86AA8573
:104B50008843170300006700030E011122CC26CA08
:104B60004AC806CE4EC6AA842E89328419C51C4D69
:104B700089E797000000E780409397C7FFFF93877E
:104B800027A2631FF406C0401C4C1CC48357C400FA
:104B9000A18BD9C71C48C9C71C4808409379F90F95
:104BA0001379F90F1D8D5C486349F500A2852685B0
:104BB00097F0FFFFE78080783DE91C440505FD176D
:104BC0001CC41C401387170018C0238037015C48A1
:104BD0006389A7008357C400858B99CBA9476319C4
:104BE000F900A285268597F0FFFFE780207521E177
:104BF000F24062444A85D2444249B249056182800A
:104C000097C7FFFF9387C79B6314F4008044ADBF31
:104C100097C7FFFF9387C796E318F4F6C044ADB774
:104C2000A285268597000000E780800435D57D5950
:104C3000C1B7411122C42A842E85B285368697C712
:104C4000FF1723A307BE06C697E0FFFFE78040B724
:104C5000FD576319F50097C7FF179387E7BC9C437F
:104C600091C31CC0B240224441018280411197C7C8
:104C7000FF179387A78A26C2844322C44AC006C668
:104C80002A892E8481C89C4C91E7268597000000D4
:104C9000E780A08197C7FFFF93878790631CF4028A
:104CA000C0400317C40093170701C18393F6870020
:104CB000C9E293F607019DEEA5472320F90013678B
:104CC00007042316E4007D55B24022449244024971
:104CD0004101828097C7FFFF9387878E6314F4009A
:104CE0008044C1B797C7FFFF93878789E31BF4FA16
:104CF000C04445BF918B85CB4C5881CD930744046C
:104D00006387F5004A8597000000E78020A1232AE9
:104D100004028357C4002322040093F7B7FD23162F
:104D2000F4001C481CC08357C40093E78700231677
:104D3000F4001C4899EF8357C4001307002093F731
:104D400007286388E700A2854A8597000000E7806E
:104D500060268357C40013F7170005C75C48232457
:104D60000400B307F0401CCC1C480145B1FF831779
:104D7000C40013F7070829DB93E707042316F400A0
:104D800099B7898B014791E3584818C4F1BF97B789
:104D9000FF179387677B9C432A8E8DE717C7FF1702
:104DA0001307C79A97B7FF1723A0E77A17B5FFF73E
:104DB00013054525BA8719C51C4117C5FF17232BB5
:104DC000F5A0BA87D8437D487D556347E804630E54
:104DD0000E0203A887086301080493182700C298ED
:104DE00023A0C8000323081005463316E6003363EA
:104DF000C3002320681023A0D80889466317DE006B
:104E000083264810558E2322C810930617000A07E0
:104E1000D4C3BA978CC701458280797152CC56CAE7
:104E20005AC85EC606D622D426D24AD04ECE62C416
:104E30002A8B2E8A97BAFF17938A0A71854B03A48F
:104E40000A0011C84440832984081389F4FF8A04A6
:104E5000A294635E0900B250225492540259F2495E
:104E6000624AD24A424BB24B224C45618280630E69
:104E70000A00639509007D19F114E1BF9317290019
:104E8000CE9783A70708E39847FF5840DC407D177B
:104E90006318270323222401F9DF032C44006388CD
:104EA000090083A6091033972B01F98E89EE8297AA
:104EB000584083A70A00E31487F9E30EF4FA41B7D8
:104EC00023A20400D1BF93162900CE968C4283A65C
:104ED0004910758F01E75A858297D9BF2E85829731
:104EE000C1BF411122C42A842E8597C7FF1723AD65
:104EF000079206C697C0FFFFE780C044FD576319BD
:104F0000F50097C7FF17938727929C4391C31CC056
:104F1000B240224441018280411122C42A842E855C
:104F2000B285368697C7FF1723A0079006C697C09D
:104F3000FFFFE7800044FD576319F50097C7FF178F
:104F40009387878E9C4391C31CC0B2402244410189
:104F500082801971A6DAAE848395E500A2DC86DE34
:104F6000328463DC050083D7C40023A0060093F7D6
:104F7000070895E7930700402DA0300836C6970034
:104F80000000E7804045B246E34F05FC7247BD672D
:104F9000F98F7977BA9793B717009CC2E1BF93074F
:104FA00000041CC0F6506654D65401450961828045
:104FB00083D7C500011122CC06CE26CA4AC8898BE8
:104FC0002E8489CF930774041CC01CC885475CC815
:104FD000F2406244D244424905618280740030004C
:104FE000AA8497000000E78000F7A2452A89268559
:104FF00097F0FFFFE780007E01ED8317C40013F7F1
:10500000072079F7F19B93E727002316F4005DBF93
:1050100097F7FFFF938767439CD48357C40008C06A
:1050200008C893E707082316F400A2475CC8B247F4
:1050300085C38315E400268597000000E780203DA6
:1050400001C98357C400F19B93E717002316F400AE
:105050008357C4003369F9002316240195BF828069
:1050600082801C46FD171CC663DC0700184E63C512
:10507000E700A9476396F50017030000670023AE19
:105080001C422E851387170018C22380B700828028
:10509000011122CC26CA4AC84EC652C406CE2A895D
:1050A000AE893284B304D6007D5A6314940001455E
:1050B00021A8834504004E864A8597000000E780BA
:1050C00080FA0504E31345FFF2406244D2444249AA
:1050D000B249224A05618280357122CD26CB4AC968
:1050E0004EC706CF52C556C35AC1DEDEE2DCE6DA51
:1050F000AA89AE843289368419C51C4D89E797F098
:10510000FFFFE780803A97B7FFFF93876749639176
:10511000F40E83A4490083D7C400A18BE5CF9C483B
:10512000F5CB93070002A304F1029307000302D218
:105130002305F10222C6930B500297BAFFFF938A10
:105140002A4A054C294B4A848347040099C3639833
:10515000770FB30C244163800C02E6864A86A6854D
:105160004E8597000000E780E0F2FD576301F520CF
:105170009256E69636D283470400638A071EFD578F
:105180001309140002C802CE3ECA02CCA3090104CE
:1051900082D4834509001546568597000000E780B4
:1051A000602A13041900C24749ED13F7070109C724
:1051B00013070002A309E10413F7870009C71307C7
:1051C000B002A309E104834609001307A002638229
:1051D000E608F2474A8481462546034704009305C2
:1051E0001400130707FD637BE60AA5CE3ECE95A803
:1051F00097B7FFFF9387C73C6395F40083A48900AA
:1052000019BF97B7FFFF9387A737E396F4F083A4FE
:10521000C90011B7A6854E8597000000E78040A51C
:1052200009D17D55FA406A44DA444A49BA492A4AC2
:105230009A4A0A4BF65B665CD65C0D618280050477
:1052400021B7330555413315AC00C98F3EC82289BB
:1052500089B7324793064700184336C663490702A9
:105260003ACE034704009307E002631FF7040347A5
:1052700014009307A002631BF702B24709041387C7
:1052800047009C433AC663C107023ECA35A83307AC
:10529000E04093E727003ACE3EC8E1B7B387670303
:1052A00085462E84BA9715BFFD57C5B7050402CAB7
:1052B00081468147254603470400930514001307E0
:1052C00007FD637CE606F1F2834504000D4617B541
:1052D000FFFF1305653197000000E780A01611CD90
:1052E00097B7FFFF938747301D8D93070004B3974F
:1052F000A700424505045D8D2AC883450400194670
:1053000017B5FFFF1305852E130914002304B102FE
:1053100097000000E78000133DC197B7FFF7938720
:1053200067CE95E74247B2471377071009CF910739
:105330003EC69257D2973ED239B5B38767038546AA
:105340002E84BA978DBF9D07E19BA107D5B7780042
:1053500097060000938606D426860C084E85970093
:105360000000E7000000FD572A8AE314F5FC83D70C
:10537000C40093F70704E39607EA125565B5780071
:1053800097060000938606D126860C084E85970066
:105390000000E780801DC1BF411122C42A842E85F0
:1053A000B285368697B7FF1723A0074806C697C071
:1053B000FFFFE780A0FDFD576319F50097B7FF17C2
:1053C000938787469C4391C31CC0B240224441014D
:1053D0008280411122C42A842E85B28597B7FF1797
:1053E00023A4074406C697C0FFFFE780E0F5FD57FA
:1053F0006319F50097B7FF17938707439C4391C341
:105400001CC0B240224441018280411122C42A843E
:105410002E8597B7FF1723A9074006C697C0FFFF41
:10542000E780A0F4FD576319F50097B7FF1793873E
:10543000A73F9C4391C31CC0B240224441018280DB
:1054400093F5F50F2A966314C500014582808347C2
:105450000500E38DB7FE0505FDB7797156CA9C4975
:10546000BA8A984522D426D24ECE52CC06D64AD0FD
:105470005AC85EC6AA892E84B284368A63D3E700EE
:10548000BA879CC00347340419C385079CC01C40DD
:1054900093F7070281C79C4089079CC00329040039
:1054A00013796900631A0900130B9401FD5B5C44D6
:1054B0009840998F634CF9041C408346340493F759
:1054C0000702B336D000A5EB13063404D2854E850F
:1054D000829AFD576303F5041C4011469840998B4E
:1054E000544481446397C700B384E64063D3040007
:1054F00081441C4418486354F700998FBE940149B5
:1055000069047D5B63982405014509A885465A8690
:10551000D2854E85829A631E75017D55B250225404
:1055200092540259F249624AD24A424BB24B456107
:1055300082800509ADBF3307D40013060003A30121
:10554000C7040347540493871600A2978906A381D2
:10555000E7049DBF85462286D2854E85829AE30E5A
:1055600065FB050945B7797122D426D24AD04ECEC3
:1055700006D652CC56CA5AC8B68983C68501930747
:10558000E0063289AA842E84138635046383F61ECE
:1055900063E2D706930730066382F60A63EDD7000D
:1055A000638D061E930780056389F616930A24040B
:1055B0002301D40469A8930740066386F600930785
:1055C0009006E395F6FE1C40084393F60708930502
:1055D0004500C1C21C410CC363D807001307D002A9
:1055E000B307F040A301E40497B6FFFF938686005B
:1055F000294765A0930730076385F61A63EFD70044
:105600009307F006638FF60493070007E390F6FA1A
:105610009C4193E707029CC109A893075007638246
:10562000F60493078007E393F6F893078007A30235
:10563000F40497B6FFFF938626FDF5A01C43938ADA
:105640002504938647009C4314C32381F5048547B2
:105650009DAA93F607041C410CC3BDDEC207C18797
:10566000A5BF0C401C4313F80508138547006305CC
:10567000080008C39C4339A093F5050408C3FDD96D
:1056800083D707001307F006638DE60C97B6FFFF7C
:10569000938646F62947A30104044C400CC463C515
:1056A000050008406D9908C099E3B28A91CDB28A8D
:1056B000B3F5E702FD1AB69583C505002380BA004D
:1056C000B3D5E70263F5E70AA147631EF7001C4064
:1056D000858B91CB58401C4863C7E70093070003B4
:1056E000A38FFAFEFD1A3306564110C84E87CA86AC
:1056F0007000A285268597000000E78040D67D5A7D
:105700006317450D7D55B250225492540259F24907
:10571000624AD24A424B45618280A382D50497B641
:10572000FFFF938626ED0C40084313F805081C4143
:1057300011056300080208C313F7150001C793E5BC
:1057400005020CC04147A1FB0C4093F5F5FD0CC0D0
:1057500099B713F8050408C3E30008FEC207C18324
:10576000E1BF97B6FFFF9386E6E821472DB7AE87E6
:1057700081B794411C43CC4913F8060813854700B0
:105780006306080008C39C438CC301A808C393F6B2
:1057900006049C43F5DA2390B70023280400B28A5C
:1057A000B1B71C43D04181459386470014C383AAF7
:1057B0000700568597000000E780C0C801C5330583
:1057C000554148C05C401CC8A301040405B71448F7
:1057D0005686CA8526858299E30645F31C40898B47
:1057E0008DE7B2474844E350F5F23E8529BF854630
:1057F0005686CA8526858299E30665F1050A5C44CA
:105800003247998FE345FAFEE9BF014A930A9401B2
:045810007D5BF5B710
:04581400040309047C
:045818000000030089
:04581C000302010280
:045820009C040020C4
:10582400090243000201008032090400000102025F
:1058340000000524001001052401000104240202D3
:1058440005240600010705820308000A0904010073
:10585400020A000000070503024000000705810258
:1058640040000000FF000000E41500082A160008AC
:10587400EE160008AE1600086216000800000000CC
:105884000000000000000000000000000000000014
:105894000000000000000000000000000000000004
:1058A40000000000000000000000000000000000F4
:1058B40000000000000000000000000000000000E4
:105C940000000000000000000000000048030008AD
:105CA40000000020000000005C0300080000000069
:105CB40000000000000000000000000000000000E0
:105CC4009C050008BC0500087C05000800000000D5
:105CD40000000000000000000000000000000000C0
:105CE40000000000000000000000000000000000B0
:105CF40000000000000000000000000000000000A0
:105D0400000000000000000000000000000000008F
:105D1400000000000000000000000000000000007F
:105D240000F36F0628080020FF00000000C20100F5
:105D340000000800010100009C0400200000000095
:040000050800015C92
:00000001FF
